{
  "_format": "hh-sol-artifact-1",
  "contractName": "Election",
  "sourceName": "contracts/Election.sol",
  "abi": [
    {
      "inputs": [
        {
          "internalType": "string",
          "name": "_name",
          "type": "string"
        }
      ],
      "stateMutability": "nonpayable",
      "type": "constructor"
    },
    {
      "inputs": [],
      "name": "TotalTimeElapsed",
      "outputs": [
        {
          "internalType": "uint256",
          "name": "",
          "type": "uint256"
        }
      ],
      "stateMutability": "view",
      "type": "function"
    },
    {
      "inputs": [
        {
          "internalType": "string",
          "name": "_name",
          "type": "string"
        },
        {
          "internalType": "uint256",
          "name": "_age",
          "type": "uint256"
        },
        {
          "internalType": "bool",
          "name": "_isAlive",
          "type": "bool"
        },
        {
          "internalType": "bool",
          "name": "_hasBadCriminalRecord",
          "type": "bool"
        },
        {
          "internalType": "uint256",
          "name": "netWorth",
          "type": "uint256"
        },
        {
          "internalType": "uint256",
          "name": "zkp",
          "type": "uint256"
        }
      ],
      "name": "authorizeUser",
      "outputs": [],
      "stateMutability": "nonpayable",
      "type": "function"
    },
    {
      "inputs": [
        {
          "internalType": "uint256",
          "name": "",
          "type": "uint256"
        }
      ],
      "name": "candidates",
      "outputs": [
        {
          "internalType": "string",
          "name": "name",
          "type": "string"
        },
        {
          "internalType": "uint256",
          "name": "age",
          "type": "uint256"
        },
        {
          "internalType": "bool",
          "name": "isAlive",
          "type": "bool"
        },
        {
          "internalType": "uint256",
          "name": "netWorth",
          "type": "uint256"
        },
        {
          "internalType": "bool",
          "name": "hasBadCriminalRecord",
          "type": "bool"
        },
        {
          "internalType": "uint256",
          "name": "numVotes",
          "type": "uint256"
        }
      ],
      "stateMutability": "view",
      "type": "function"
    },
    {
      "inputs": [],
      "name": "electionName",
      "outputs": [
        {
          "internalType": "string",
          "name": "",
          "type": "string"
        }
      ],
      "stateMutability": "view",
      "type": "function"
    },
    {
      "inputs": [],
      "name": "endElection",
      "outputs": [],
      "stateMutability": "nonpayable",
      "type": "function"
    },
    {
      "inputs": [],
      "name": "numOfCandidates",
      "outputs": [
        {
          "internalType": "uint256",
          "name": "",
          "type": "uint256"
        }
      ],
      "stateMutability": "view",
      "type": "function"
    },
    {
      "inputs": [],
      "name": "runForElection",
      "outputs": [],
      "stateMutability": "nonpayable",
      "type": "function"
    },
    {
      "inputs": [],
      "name": "totalVotes",
      "outputs": [
        {
          "internalType": "uint256",
          "name": "",
          "type": "uint256"
        }
      ],
      "stateMutability": "view",
      "type": "function"
    },
    {
      "inputs": [
        {
          "internalType": "uint256",
          "name": "_voteIndex",
          "type": "uint256"
        }
      ],
      "name": "vote",
      "outputs": [],
      "stateMutability": "nonpayable",
      "type": "function"
    },
    {
      "inputs": [
        {
          "internalType": "address",
          "name": "",
          "type": "address"
        }
      ],
      "name": "voters",
      "outputs": [
        {
          "internalType": "string",
          "name": "name",
          "type": "string"
        },
        {
          "internalType": "uint256",
          "name": "age",
          "type": "uint256"
        },
        {
          "internalType": "bool",
          "name": "isAlive",
          "type": "bool"
        },
        {
          "internalType": "bool",
          "name": "isAuthorized",
          "type": "bool"
        },
        {
          "internalType": "bool",
          "name": "hasVoted",
          "type": "bool"
        },
        {
          "internalType": "bool",
          "name": "verifiedByZKP",
          "type": "bool"
        },
        {
          "internalType": "uint256",
          "name": "vote",
          "type": "uint256"
        },
        {
          "internalType": "uint256",
          "name": "netWorth",
          "type": "uint256"
        },
        {
          "internalType": "bool",
          "name": "hasBadCriminalRecord",
          "type": "bool"
        },
        {
          "internalType": "bool",
          "name": "runningForElect",
          "type": "bool"
        }
      ],
      "stateMutability": "view",
      "type": "function"
    },
    {
      "inputs": [],
      "name": "winner",
      "outputs": [
        {
          "internalType": "string",
          "name": "name",
          "type": "string"
        },
        {
          "internalType": "uint256",
          "name": "age",
          "type": "uint256"
        },
        {
          "internalType": "bool",
          "name": "isAlive",
          "type": "bool"
        },
        {
          "internalType": "uint256",
          "name": "netWorth",
          "type": "uint256"
        },
        {
          "internalType": "bool",
          "name": "hasBadCriminalRecord",
          "type": "bool"
        },
        {
          "internalType": "uint256",
          "name": "numVotes",
          "type": "uint256"
        }
      ],
      "stateMutability": "view",
      "type": "function"
    }
  ],
  "bytecode": "0x608060405260008060006101000a81548160ff0219169083151502179055503480156200002b57600080fd5b50604051620030ed380380620030ed83398181016040528101906200005191906200028f565b33600360006101000a81548173ffffffffffffffffffffffffffffffffffffffff021916908373ffffffffffffffffffffffffffffffffffffffff1602179055508060049081620000a391906200052b565b50426001819055506040518060400160405280601a81526020017f456c656374696f6e20697320756e6465722070726f636573732100000000000081525060056000019081620000f491906200052b565b505062000612565b6000604051905090565b600080fd5b600080fd5b600080fd5b600080fd5b6000601f19601f8301169050919050565b7f4e487b7100000000000000000000000000000000000000000000000000000000600052604160045260246000fd5b62000165826200011a565b810181811067ffffffffffffffff821117156200018757620001866200012b565b5b80604052505050565b60006200019c620000fc565b9050620001aa82826200015a565b919050565b600067ffffffffffffffff821115620001cd57620001cc6200012b565b5b620001d8826200011a565b9050602081019050919050565b60005b8381101562000205578082015181840152602081019050620001e8565b60008484015250505050565b6000620002286200022284620001af565b62000190565b90508281526020810184848401111562000247576200024662000115565b5b62000254848285620001e5565b509392505050565b600082601f83011262000274576200027362000110565b5b81516200028684826020860162000211565b91505092915050565b600060208284031215620002a857620002a762000106565b5b600082015167ffffffffffffffff811115620002c957620002c86200010b565b5b620002d7848285016200025c565b91505092915050565b600081519050919050565b7f4e487b7100000000000000000000000000000000000000000000000000000000600052602260045260246000fd5b600060028204905060018216806200033357607f821691505b602082108103620003495762000348620002eb565b5b50919050565b60008190508160005260206000209050919050565b60006020601f8301049050919050565b600082821b905092915050565b600060088302620003b37fffffffffffffffffffffffffffffffffffffffffffffffffffffffffffffffff8262000374565b620003bf868362000374565b95508019841693508086168417925050509392505050565b6000819050919050565b6000819050919050565b60006200040c620004066200040084620003d7565b620003e1565b620003d7565b9050919050565b6000819050919050565b6200042883620003eb565b62000440620004378262000413565b84845462000381565b825550505050565b600090565b6200045762000448565b620004648184846200041d565b505050565b5b818110156200048c57620004806000826200044d565b6001810190506200046a565b5050565b601f821115620004db57620004a5816200034f565b620004b08462000364565b81016020851015620004c0578190505b620004d8620004cf8562000364565b83018262000469565b50505b505050565b600082821c905092915050565b60006200050060001984600802620004e0565b1980831691505092915050565b60006200051b8383620004ed565b9150826002028217905092915050565b6200053682620002e0565b67ffffffffffffffff8111156200055257620005516200012b565b5b6200055e82546200031a565b6200056b82828562000490565b600060209050601f831160018114620005a357600084156200058e578287015190505b6200059a85826200050d565b8655506200060a565b601f198416620005b3866200034f565b60005b82811015620005dd57848901518255600182019150602085019450602081019050620005b6565b86831015620005fd5784890151620005f9601f891682620004ed565b8355505b6001600288020188555050505b505050505050565b612acb80620006226000396000f3fe608060405234801561001057600080fd5b50600436106100a85760003560e01c806364f62cc01161007157806364f62cc0146101425780636949b51d14610160578063787270761461016a57806385e8e7a714610188578063a3ec138d146101a6578063dfbf53ae146101df576100a8565b80628e2e34146100ad5780630121b93f146100c95780630d15fd77146100e55780633477ee2e1461010357806359f7846814610138575b600080fd5b6100c760048036038101906100c29190611873565b610202565b005b6100e360048036038101906100de919061191c565b6106ab565b005b6100ed610ab8565b6040516100fa9190611958565b60405180910390f35b61011d6004803603810190610118919061191c565b610abe565b60405161012f96959493929190611a01565b60405180910390f35b610140610bac565b005b61014a610ddb565b6040516101579190611958565b60405180910390f35b610168610de8565b005b61017261132b565b60405161017f9190611958565b60405180910390f35b610190611331565b60405161019d9190611a69565b60405180910390f35b6101c060048036038101906101bb9190611ae9565b6113bf565b6040516101d69a99989796959493929190611b16565b60405180910390f35b6101e76114e9565b6040516101f996959493929190611a01565b60405180910390f35b60008054906101000a900460ff1615610250576040517f08c379a000000000000000000000000000000000000000000000000000000000815260040161024790611c05565b60405180910390fd5b6012851015610294576040517f08c379a000000000000000000000000000000000000000000000000000000000815260040161028b90611c97565b60405180910390fd5b609685106102d7576040517f08c379a00000000000000000000000000000000000000000000000000000000081526004016102ce90611d03565b60405180910390fd5b8215610318576040517f08c379a000000000000000000000000000000000000000000000000000000000815260040161030f90611d95565b60405180910390fd5b600b60003373ffffffffffffffffffffffffffffffffffffffff1673ffffffffffffffffffffffffffffffffffffffff16815260200190815260200160002060020160019054906101000a900460ff16156103a8576040517f08c379a000000000000000000000000000000000000000000000000000000000815260040161039f90611e27565b60405180910390fd5b600e600082815260200190815260200160002060009054906101000a900460ff1615610409576040517f08c379a000000000000000000000000000000000000000000000000000000000815260040161040090611e93565b60405180910390fd5b610412816115b5565b610451576040517f08c379a000000000000000000000000000000000000000000000000000000000815260040161044890611f25565b60405180910390fd5b600b60003373ffffffffffffffffffffffffffffffffffffffff1673ffffffffffffffffffffffffffffffffffffffff16815260200190815260200160002060050160019054906101000a900460ff16156104e1576040517f08c379a00000000000000000000000000000000000000000000000000000000081526004016104d890611fb7565b60405180910390fd5b6000339050604051806101400160405280888152602001878152602001861515815260200160011515815260200160001515815260200160011515815260200161270f8152602001848152602001851515815260200160011515815250600b60008373ffffffffffffffffffffffffffffffffffffffff1673ffffffffffffffffffffffffffffffffffffffff168152602001908152602001600020600082015181600001908161059291906121e3565b506020820151816001015560408201518160020160006101000a81548160ff02191690831515021790555060608201518160020160016101000a81548160ff02191690831515021790555060808201518160020160026101000a81548160ff02191690831515021790555060a08201518160020160036101000a81548160ff02191690831515021790555060c0820151816003015560e082015181600401556101008201518160050160006101000a81548160ff0219169083151502179055506101208201518160050160016101000a81548160ff0219169083151502179055509050506001600e600084815260200190815260200160002060006101000a81548160ff02191690831515021790555050505050505050565b60008054906101000a900460ff16156106f9576040517f08c379a00000000000000000000000000000000000000000000000000000000081526004016106f090611c05565b60405180910390fd5b600b60003373ffffffffffffffffffffffffffffffffffffffff1673ffffffffffffffffffffffffffffffffffffffff16815260200190815260200160002060020160029054906101000a900460ff1615610789576040517f08c379a000000000000000000000000000000000000000000000000000000000815260040161078090612301565b60405180910390fd5b600b60003373ffffffffffffffffffffffffffffffffffffffff1673ffffffffffffffffffffffffffffffffffffffff16815260200190815260200160002060020160019054906101000a900460ff16610818576040517f08c379a000000000000000000000000000000000000000000000000000000000815260040161080f9061236d565b60405180910390fd5b6012600b60003373ffffffffffffffffffffffffffffffffffffffff1673ffffffffffffffffffffffffffffffffffffffff16815260200190815260200160002060010154101561089e576040517f08c379a0000000000000000000000000000000000000000000000000000000008152600401610895906123ff565b60405180910390fd5b600b60003373ffffffffffffffffffffffffffffffffffffffff1673ffffffffffffffffffffffffffffffffffffffff16815260200190815260200160002060020160009054906101000a900460ff1661092d576040517f08c379a000000000000000000000000000000000000000000000000000000000815260040161092490612491565b60405180910390fd5b600b60003373ffffffffffffffffffffffffffffffffffffffff1673ffffffffffffffffffffffffffffffffffffffff16815260200190815260200160002060020160039054906101000a900460ff166109bc576040517f08c379a00000000000000000000000000000000000000000000000000000000081526004016109b390612523565b60405180910390fd5b80600b60003373ffffffffffffffffffffffffffffffffffffffff1673ffffffffffffffffffffffffffffffffffffffff168152602001908152602001600020600301819055506001600b60003373ffffffffffffffffffffffffffffffffffffffff1673ffffffffffffffffffffffffffffffffffffffff16815260200190815260200160002060020160026101000a81548160ff0219169083151502179055506001600c8281548110610a7457610a73612543565b5b90600052602060002090600602016005016000828254610a9491906125a1565b925050819055506001600d6000828254610aae91906125a1565b9250508190555050565b600d5481565b600c8181548110610ace57600080fd5b9060005260206000209060060201600091509050806000018054610af190612006565b80601f0160208091040260200160405190810160405280929190818152602001828054610b1d90612006565b8015610b6a5780601f10610b3f57610100808354040283529160200191610b6a565b820191906000526020600020905b815481529060010190602001808311610b4d57829003601f168201915b5050505050908060010154908060020160009054906101000a900460ff16908060030154908060040160009054906101000a900460ff16908060050154905086565b600360009054906101000a900473ffffffffffffffffffffffffffffffffffffffff1673ffffffffffffffffffffffffffffffffffffffff163373ffffffffffffffffffffffffffffffffffffffff1614610c3c576040517f08c379a0000000000000000000000000000000000000000000000000000000008152600401610c3390612647565b60405180910390fd5b60008054906101000a900460ff1615610c8a576040517f08c379a0000000000000000000000000000000000000000000000000000000008152600401610c81906126b3565b60405180910390fd5b6000610c946115d2565b905042600281905550600154600254610cad91906126d3565b600f8190555061270f8103610d09576040518060400160405280600b81526020017f497427732061207469652100000000000000000000000000000000000000000081525060056000019081610d0391906121e3565b50610dbe565b600c8181548110610d1d57610d1c612543565b5b9060005260206000209060060201600560008201816000019081610d41919061271d565b50600182015481600101556002820160009054906101000a900460ff168160020160006101000a81548160ff021916908315150217905550600382015481600301556004820160009054906101000a900460ff168160040160006101000a81548160ff021916908315150217905550600582015481600501559050505b60016000806101000a81548160ff02191690831515021790555050565b6000600c80549050905090565b60008054906101000a900460ff1615610e36576040517f08c379a0000000000000000000000000000000000000000000000000000000008152600401610e2d90611c05565b60405180910390fd5b6019600b60003373ffffffffffffffffffffffffffffffffffffffff1673ffffffffffffffffffffffffffffffffffffffff168152602001908152602001600020600101541015610ebc576040517f08c379a0000000000000000000000000000000000000000000000000000000008152600401610eb390612877565b60405180910390fd5b600b60003373ffffffffffffffffffffffffffffffffffffffff1673ffffffffffffffffffffffffffffffffffffffff16815260200190815260200160002060020160009054906101000a900460ff16610f4b576040517f08c379a0000000000000000000000000000000000000000000000000000000008152600401610f4290612909565b60405180910390fd5b600b60003373ffffffffffffffffffffffffffffffffffffffff1673ffffffffffffffffffffffffffffffffffffffff16815260200190815260200160002060050160009054906101000a900460ff1615610fdb576040517f08c379a0000000000000000000000000000000000000000000000000000000008152600401610fd29061299b565b60405180910390fd5b600b60003373ffffffffffffffffffffffffffffffffffffffff1673ffffffffffffffffffffffffffffffffffffffff16815260200190815260200160002060020160019054906101000a900460ff1661106a576040517f08c379a000000000000000000000000000000000000000000000000000000000815260040161106190612a2d565b60405180910390fd5b600c6040518060c00160405280600b60003373ffffffffffffffffffffffffffffffffffffffff1673ffffffffffffffffffffffffffffffffffffffff16815260200190815260200160002060000180546110c490612006565b80601f01602080910402602001604051908101604052809291908181526020018280546110f090612006565b801561113d5780601f106111125761010080835404028352916020019161113d565b820191906000526020600020905b81548152906001019060200180831161112057829003601f168201915b50505050508152602001600b60003373ffffffffffffffffffffffffffffffffffffffff1673ffffffffffffffffffffffffffffffffffffffff168152602001908152602001600020600101548152602001600b60003373ffffffffffffffffffffffffffffffffffffffff1673ffffffffffffffffffffffffffffffffffffffff16815260200190815260200160002060020160009054906101000a900460ff1615158152602001600b60003373ffffffffffffffffffffffffffffffffffffffff1673ffffffffffffffffffffffffffffffffffffffff168152602001908152602001600020600401548152602001600b60003373ffffffffffffffffffffffffffffffffffffffff1673ffffffffffffffffffffffffffffffffffffffff16815260200190815260200160002060050160009054906101000a900460ff16151581526020016000815250908060018154018082558091505060019003906000526020600020906006020160009091909190915060008201518160000190816112c891906121e3565b506020820151816001015560408201518160020160006101000a81548160ff0219169083151502179055506060820151816003015560808201518160040160006101000a81548160ff02191690831515021790555060a082015181600501555050565b600f5481565b6004805461133e90612006565b80601f016020809104026020016040519081016040528092919081815260200182805461136a90612006565b80156113b75780601f1061138c576101008083540402835291602001916113b7565b820191906000526020600020905b81548152906001019060200180831161139a57829003601f168201915b505050505081565b600b6020528060005260406000206000915090508060000180546113e290612006565b80601f016020809104026020016040519081016040528092919081815260200182805461140e90612006565b801561145b5780601f106114305761010080835404028352916020019161145b565b820191906000526020600020905b81548152906001019060200180831161143e57829003601f168201915b5050505050908060010154908060020160009054906101000a900460ff16908060020160019054906101000a900460ff16908060020160029054906101000a900460ff16908060020160039054906101000a900460ff16908060030154908060040154908060050160009054906101000a900460ff16908060050160019054906101000a900460ff1690508a565b60058060000180546114fa90612006565b80601f016020809104026020016040519081016040528092919081815260200182805461152690612006565b80156115735780601f1061154857610100808354040283529160200191611573565b820191906000526020600020905b81548152906001019060200180831161155657829003601f168201915b5050505050908060010154908060020160009054906101000a900460ff16908060030154908060040160009054906101000a900460ff16908060050154905086565b6000808211156115c857600190506115cd565b600090505b919050565b60008060009050600061270f905060005b6115eb610ddb565b8110156116a25782600c828154811061160757611606612543565b5b906000526020600020906006020160050154111561164f57600c818154811061163357611632612543565b5b906000526020600020906006020160050154925080915061168f565b82600c828154811061166457611663612543565b5b9060005260206000209060060201600501541480156116835750818114155b1561168e5761270f91505b5b808061169a90612a4d565b9150506115e3565b50809250505090565b6000604051905090565b600080fd5b600080fd5b600080fd5b600080fd5b6000601f19601f8301169050919050565b7f4e487b7100000000000000000000000000000000000000000000000000000000600052604160045260246000fd5b611712826116c9565b810181811067ffffffffffffffff82111715611731576117306116da565b5b80604052505050565b60006117446116ab565b90506117508282611709565b919050565b600067ffffffffffffffff8211156117705761176f6116da565b5b611779826116c9565b9050602081019050919050565b82818337600083830152505050565b60006117a86117a384611755565b61173a565b9050828152602081018484840111156117c4576117c36116c4565b5b6117cf848285611786565b509392505050565b600082601f8301126117ec576117eb6116bf565b5b81356117fc848260208601611795565b91505092915050565b6000819050919050565b61181881611805565b811461182357600080fd5b50565b6000813590506118358161180f565b92915050565b60008115159050919050565b6118508161183b565b811461185b57600080fd5b50565b60008135905061186d81611847565b92915050565b60008060008060008060c087890312156118905761188f6116b5565b5b600087013567ffffffffffffffff8111156118ae576118ad6116ba565b5b6118ba89828a016117d7565b96505060206118cb89828a01611826565b95505060406118dc89828a0161185e565b94505060606118ed89828a0161185e565b93505060806118fe89828a01611826565b92505060a061190f89828a01611826565b9150509295509295509295565b600060208284031215611932576119316116b5565b5b600061194084828501611826565b91505092915050565b61195281611805565b82525050565b600060208201905061196d6000830184611949565b92915050565b600081519050919050565b600082825260208201905092915050565b60005b838110156119ad578082015181840152602081019050611992565b60008484015250505050565b60006119c482611973565b6119ce818561197e565b93506119de81856020860161198f565b6119e7816116c9565b840191505092915050565b6119fb8161183b565b82525050565b600060c0820190508181036000830152611a1b81896119b9565b9050611a2a6020830188611949565b611a3760408301876119f2565b611a446060830186611949565b611a5160808301856119f2565b611a5e60a0830184611949565b979650505050505050565b60006020820190508181036000830152611a8381846119b9565b905092915050565b600073ffffffffffffffffffffffffffffffffffffffff82169050919050565b6000611ab682611a8b565b9050919050565b611ac681611aab565b8114611ad157600080fd5b50565b600081359050611ae381611abd565b92915050565b600060208284031215611aff57611afe6116b5565b5b6000611b0d84828501611ad4565b91505092915050565b6000610140820190508181036000830152611b31818d6119b9565b9050611b40602083018c611949565b611b4d604083018b6119f2565b611b5a606083018a6119f2565b611b6760808301896119f2565b611b7460a08301886119f2565b611b8160c0830187611949565b611b8e60e0830186611949565b611b9c6101008301856119f2565b611baa6101208301846119f2565b9b9a5050505050505050505050565b7f456c656374696f6e2068617320656e6465640000000000000000000000000000600082015250565b6000611bef60128361197e565b9150611bfa82611bb9565b602082019050919050565b60006020820190508181036000830152611c1e81611be2565b9050919050565b7f566f746572206d757374206265206174206c656173742031382079656172732060008201527f6f6c642e00000000000000000000000000000000000000000000000000000000602082015250565b6000611c8160248361197e565b9150611c8c82611c25565b604082019050919050565b60006020820190508181036000830152611cb081611c74565b9050919050565b7f566f746572206d75737420626520616c6976652e000000000000000000000000600082015250565b6000611ced60148361197e565b9150611cf882611cb7565b602082019050919050565b60006020820190508181036000830152611d1c81611ce0565b9050919050565b7f566f74657273207769746820626164206372696d696e616c207265636f72647360008201527f20617265206e6f7420616c6c6f7765642e000000000000000000000000000000602082015250565b6000611d7f60318361197e565b9150611d8a82611d23565b604082019050919050565b60006020820190508181036000830152611dae81611d72565b9050919050565b7f596f75206861766520616c7265616479206265656e207265676973746572656460008201527f206173206120766f7465722e0000000000000000000000000000000000000000602082015250565b6000611e11602c8361197e565b9150611e1c82611db5565b604082019050919050565b60006020820190508181036000830152611e4081611e04565b9050919050565b7f54686973205a4b502068617320616c7265616479206265656e20757365642e00600082015250565b6000611e7d601f8361197e565b9150611e8882611e47565b602082019050919050565b60006020820190508181036000830152611eac81611e70565b9050919050565b7f596f7520617265206e6f7420616e20617574686f726973656420496e6469616e60008201527f20636974697a656e2e0000000000000000000000000000000000000000000000602082015250565b6000611f0f60298361197e565b9150611f1a82611eb3565b604082019050919050565b60006020820190508181036000830152611f3e81611f02565b9050919050565b7f596f75206861766520616c7265616479206265656e207265676973746572656460008201527f20666f7220656c656374696f6e00000000000000000000000000000000000000602082015250565b6000611fa1602d8361197e565b9150611fac82611f45565b604082019050919050565b60006020820190508181036000830152611fd081611f94565b9050919050565b7f4e487b7100000000000000000000000000000000000000000000000000000000600052602260045260246000fd5b6000600282049050600182168061201e57607f821691505b60208210810361203157612030611fd7565b5b50919050565b60008190508160005260206000209050919050565b60006020601f8301049050919050565b600082821b905092915050565b6000600883026120997fffffffffffffffffffffffffffffffffffffffffffffffffffffffffffffffff8261205c565b6120a3868361205c565b95508019841693508086168417925050509392505050565b6000819050919050565b60006120e06120db6120d684611805565b6120bb565b611805565b9050919050565b6000819050919050565b6120fa836120c5565b61210e612106826120e7565b848454612069565b825550505050565b600090565b612123612116565b61212e8184846120f1565b505050565b5b818110156121525761214760008261211b565b600181019050612134565b5050565b601f8211156121975761216881612037565b6121718461204c565b81016020851015612180578190505b61219461218c8561204c565b830182612133565b50505b505050565b600082821c905092915050565b60006121ba6000198460080261219c565b1980831691505092915050565b60006121d383836121a9565b9150826002028217905092915050565b6121ec82611973565b67ffffffffffffffff811115612205576122046116da565b5b61220f8254612006565b61221a828285612156565b600060209050601f83116001811461224d576000841561223b578287015190505b61224585826121c7565b8655506122ad565b601f19841661225b86612037565b60005b828110156122835784890151825560018201915060208501945060208101905061225e565b868310156122a0578489015161229c601f8916826121a9565b8355505b6001600288020188555050505b505050505050565b7f596f75206861766520616c726561647920766f7465642e000000000000000000600082015250565b60006122eb60178361197e565b91506122f6826122b5565b602082019050919050565b6000602082019050818103600083015261231a816122de565b9050919050565b7f596f7520617265206e6f7420617574686f72697a656420746f20766f74652e00600082015250565b6000612357601f8361197e565b915061236282612321565b602082019050919050565b600060208201905081810360008301526123868161234a565b9050919050565b7f596f75206d757374206265206174206c65617374203138207965617273206f6c60008201527f6420746f20766f74652e00000000000000000000000000000000000000000000602082015250565b60006123e9602a8361197e565b91506123f48261238d565b604082019050919050565b60006020820190508181036000830152612418816123dc565b9050919050565b7f446563656173656420696e646976696475616c7320617265206e6f7420616c6c60008201527f6f77656420746f20766f74652e00000000000000000000000000000000000000602082015250565b600061247b602d8361197e565b91506124868261241f565b604082019050919050565b600060208201905081810360008301526124aa8161246e565b9050919050565b7f566f7465722064617461206d757374206265207665726966696564207769746860008201527f204161646861722064617461626173652e000000000000000000000000000000602082015250565b600061250d60318361197e565b9150612518826124b1565b604082019050919050565b6000602082019050818103600083015261253c81612500565b9050919050565b7f4e487b7100000000000000000000000000000000000000000000000000000000600052603260045260246000fd5b7f4e487b7100000000000000000000000000000000000000000000000000000000600052601160045260246000fd5b60006125ac82611805565b91506125b783611805565b92508282019050808211156125cf576125ce612572565b5b92915050565b7f4f6e6c7920746865206f776e65722063616e2063616c6c20746869732066756e60008201527f6374696f6e2e0000000000000000000000000000000000000000000000000000602082015250565b600061263160268361197e565b915061263c826125d5565b604082019050919050565b6000602082019050818103600083015261266081612624565b9050919050565b7f456c656374696f6e2068617320616c726561647920656e646564000000000000600082015250565b600061269d601a8361197e565b91506126a882612667565b602082019050919050565b600060208201905081810360008301526126cc81612690565b9050919050565b60006126de82611805565b91506126e983611805565b925082820390508181111561270157612700612572565b5b92915050565b60008154905061271681612006565b9050919050565b81810361272b575050612803565b61273482612707565b67ffffffffffffffff81111561274d5761274c6116da565b5b6127578254612006565b612762828285612156565b6000601f831160018114612791576000841561277f578287015490505b61278985826121c7565b8655506127fc565b601f19841661279f87612037565b96506127aa86612037565b60005b828110156127d2578489015482556001820191506001850194506020810190506127ad565b868310156127ef57848901546127eb601f8916826121a9565b8355505b6001600288020188555050505b5050505050505b565b7f43616e646964617465206d757374206265206174206c6561737420323520796560008201527f617273206f6c642e000000000000000000000000000000000000000000000000602082015250565b600061286160288361197e565b915061286c82612805565b604082019050919050565b6000602082019050818103600083015261289081612854565b9050919050565b7f446563656173656420696e646976696475616c7320617265206e6f7420616c6c60008201527f6f77656420746f206265636f6d652063616e646964617465732e000000000000602082015250565b60006128f3603a8361197e565b91506128fe82612897565b604082019050919050565b60006020820190508181036000830152612922816128e6565b9050919050565b7f43616e64696461746573207769746820626164206372696d696e616c2072656360008201527f6f72647320617265206e6f7420616c6c6f7765642e0000000000000000000000602082015250565b600061298560358361197e565b915061299082612929565b604082019050919050565b600060208201905081810360008301526129b481612978565b9050919050565b7f596f7520617265206e6f7420616c6c6f77656420746f2072756e20666f72207460008201527f686520656c656374696f6e2e0000000000000000000000000000000000000000602082015250565b6000612a17602c8361197e565b9150612a22826129bb565b604082019050919050565b60006020820190508181036000830152612a4681612a0a565b9050919050565b6000612a5882611805565b91507fffffffffffffffffffffffffffffffffffffffffffffffffffffffffffffffff8203612a8a57612a89612572565b5b60018201905091905056fea2646970667358221220300b92dffe09d5ad33ecadeec97304a3812a13c8f1cad0b8d20e0dcda2ea83ff64736f6c63430008130033",
  "linkReferences": {},
  "deployedLinkReferences": {}
}